:020000040800F2
:10000000381A002061080008C1080008C10800086B
:10001000C1080008C1080008C1080008000000006D
:10002000000000000000000000000000C1080008FF
:10003000C108000800000000C1080008C10800084D
:10004000C1080008C1080008C1080008C10800086C
:10005000C1080008C1080008C1080008C10800085C
:10006000C1080008C1080008C1080008C10800084C
:10007000C1080008C1080008C1080008C10800083C
:10008000C1080008C1080008C1080008C10800082C
:10009000C1080008C1080008C1080008C10800081C
:1000A000C1080008C1080008C1080008C10800080C
:1000B000C108000875160008C1080008C10800083A
:1000C000C1080008C1080008C1080008C1080008EC
:1000D000C1080008B9070008C1080008C1080008E5
:1000E000C1080008C1080008C1080008C1080008CC
:1000F000C1080008C1080008C1080008C1080008BC
:10010000C1080008C1080008C1080008C1080008AB
:10011000C1080008C1080008C1080008C10800089B
:10012000C1080008C1080008C1080008C10800088B
:10013000C1080008C1080008C1080008C10800087B
:10014000C1080008C1080008C1080008C10800086B
:10015000C1080008C1080008C1080008C10800085B
:10016000C1080008C1080008C1080008C10800084B
:10017000C1080008C1080008C1080008C10800083B
:10018000C1080008C108000880B588B000AF3B1D59
:10019000184600F0D5FB0120012100F099FC41F246
:1001A0006703BB820023FB821323BB610023BB8355
:1001B0000023BB7707F114034FF08040194601F08C
:1001C00031FC4FF08040012101F0B0FC184620378F
:1001D000BD4680BD80B588B000AF786007F10C03E4
:1001E000184600F0ADFB3A69084BA3FB02135B0B0A
:1001F0007A6802FB03F3FB6102E0FB69013BFB61F0
:10020000FB69002BF9D12037BD4680BD5917B7D106
:1002100080B500AF06485021002201F02FF90448B4
:10022000012101F06FF9024801F0C0F9184680BDC4
:100230000054004098B500AF48485021012201F019
:100240001DF9464801F076F903461A46444B1A70E8
:10025000424801F06FF903461A46414B5A703F4835
:1002600001F084F903461A463D4B9A703C4B1B78CB
:100270009B09DAB23B4B1A70394B1B781B029AB2BE
:10028000374B5B7813449BB29AB2374B1A80364B8C
:100290001B88C3F30D039AB2334B1A80304B9B7803
:1002A000DB009AB22E4BDB785B09DBB213439AB2C8
:1002B0002E4B1A802D4B1B881BB2184602F068FB90
:1002C000034618462A4902F0B7FB03461846294957
:1002D00002F066FC03461846274902F0A3FA0346DB
:1002E000184602F0F9FC03469AB2204B1A801E4BC6
:1002F0001B881BB2184602F04BFB034618461F49E9
:1003000002F090FA03461C461D4A1E4B1046194641
:1003100002F088FA03462046194602F08DFB034698
:100320001846194902F03CFC03461A46154B104684
:10033000194602F079FA034683F00042134B1A6023
:10034000124B1A68124B1046194602F075FB034611
:100350001A46104B1A60184698BD00BF0054004062
:10036000F8080020FC080020F6080020F40800200F
:100370000000484300E0FF44000048429AC9CC44D2
:10038000C06B664800DECC469AC94C46EC0800209B
:100390000E76D745F008002080B58AB000AF7860AF
:1003A000396000237B6200233B620023FB61002352
:1003B000BB617B681B8A9BB27B627B6A23F44053E0
:1003C0007B623B68DB887A6A13437B627B6A9AB202
:1003D0007B681A827B689B899BB27B627B6A23F471
:1003E000B05323F00C037B623B689A883B681B89FF
:1003F00013439AB23B685B8913439BB27A6A1343F7
:100400007B627B6A9AB27B689A817B689B8A9BB28B
:100410007B627B6A23F440737B623B689B897A6AC8
:1004200013437B627B6A9AB27B689A8207F1080366
:10043000184600F085FA7A68314B9A4203D07A6800
:10044000304B9A4202D17B693B6201E03B693B62DF
:100450007B689B899BB29BB21BB2002B0CDA3A6A79
:1004600013469B0013449A001A443B681B685B00C8
:10047000B2FBF3F3FB610BE03A6A13469B001344B3
:100480009A001A443B681B689B00B2FBF3F3FB61C4
:10049000FA691D4BA3FB02135B091B017B627B6A9C
:1004A0001B09642202FB03F3FA69D31ABB617B6860
:1004B0009B899BB29BB21BB2002B0DDABB69DB00A0
:1004C00003F13202104BA3FB02135B0903F0070395
:1004D0007A6A13437B620CE0BB691B0103F13202B1
:1004E000094BA3FB02135B0903F00F037A6A134362
:1004F0007B627B6A9AB27B681A812837BD4680BDD1
:1005000000100140001401401F85EB5180B483B0FE
:1005100000AF78600B46FB70FB78002B08D07B683F
:100520009B899BB243F400539AB27B689A8107E09F
:100530007B689B899BB223F400539AB27B689A81B3
:100540000C37BD465DF8047B704700BF80B483B0B4
:1005500000AF78600B467B807B88C3F308039AB2B8
:100560007B689A800C37BD465DF8047B704700BFFE
:1005700080B483B000AF78607B689B889BB2C3F384
:1005800008039BB218460C37BD465DF8047B7047E4
:1005900080B487B000AF786013460A467A807B70DB
:1005A00000233B610023FB600023BB6000237B61D1
:1005B0007B687B617B88DBB25B09DBB23B617B885C
:1005C00003F01F03FB60FB68012202FA03F3BB6028
:1005D0003B69012B03D17B690C337B6109E03B69EB
:1005E000022B03D17B6910337B6102E07B691433FA
:1005F0007B617B78002B06D07B697A691168BA68C9
:100600000A431A6006E07B697A691168BA68D243C6
:100610000A401A601C37BD465DF8047B704700BF76
:1006200080B485B000AF78600B467B800023FB73FD
:100630007B681B889AB27B8813409BB2002B02D048
:100640000123FB7301E00023FB73FB7B1846143787
:10065000BD465DF8047B704780B487B000AF78601A
:100660000B467B800023FB6000237B610023BB6083
:100670000023FB747B88DBB25B09DBB2BB607B8849
:1006800003F01F037B617B69012202FA03F37B61A4
:10069000BB68012B06D17B689B899BB27A691340AA
:1006A0007B610FE0BB68022B06D17B681B8A9BB283
:1006B0007A6913407B6105E07B689B8A9BB27A690B
:1006C00013407B617B881B0A9BB2FB60FB680122A5
:1006D00002FA03F3FB607B681B889BB2FA68134045
:1006E000FB607B69002B05D0FB68002B02D0012347
:1006F000FB7401E00023FB74FB7C18461C37BD46ED
:100700005DF8047B704700BF80B586B000AF102055
:10071000012100F0FBF90220012100F0BBF9C02308
:100720003B6102233B750023BB750023FB7502234D
:100730007B7507F110031B48194600F005FA1948AC
:100740000621072200F08EFA16480721072200F042
:1007500089FA4FF4E1333B600023BB800023FB8028
:1007600000233B810023BB810C237B813B460E4849
:100770001946FFF711FE0C480121FFF7C7FE0B4B8E
:1007800000221A700A4B00221A700A4B00221A70BB
:10079000054840F225510122FFF7FAFE1837BD4601
:1007A00080BD00BF0004024000100140820900200B
:1007B000810900208009002098B500AF214840F24F
:1007C0002551FFF749FF0346012B10D11E4B1B7823
:1007D0001C461C48FFF7CCFE0346DAB21B4B1A55E9
:1007E000194B1B78802B02D1174B00221A70154829
:1007F00040F22771FFF730FF0346012B21D1144B44
:100800001B785A1CD1B2124A1170124AD35C0D489F
:100810001946FFF79BFE104B1B78013BDAB20E4BDB
:100820001A700D4B1B78002B0BD1064840F2277134
:100830000022FFF7ADFE064B00221A70074B002284
:100840001A7098BD001001408209002000090020A4
:100850008109002084090020040A0020800900206A
:1008600080B582B000AF114B7B60114B3B6007E05D
:100870003B681A1D3A607A68111D796012681A6027
:100880003A680C4B9A42F3D30B480C494FF00002E4
:100890008842B8BF40F8042BFFF6FAAF00F028FA00
:1008A00000F012F80837BD4680BD00BFB47D0008D7
:1008B00000000020B4080020B4080020380A0020FE
:1008C00080B400AFFEE700BF80B500AFFFF75CFC6F
:1008D000FFF71AFF00F08AFD00F00CFF114B1B78A8
:1008E000184600F0B7FF104802F068FAFFF790FCD6
:1008F0000E4802F063FAFFF79DFC00F06DFE0C4815
:1009000001F012F80B4801F033F80B4801F030F811
:100910000A4801F02DF80A2002F018FA6420FFF7C7
:1009200059FCE8E700000020047C0008147C000863
:10093000FC080020F6080020F40800200A0A002025
:1009400080B489B000AF78600023BB6100237B6175
:100950000023FB6102233B610023FB600223BB6099
:10096000484B9B6803F00C03BB61BB69042B07D0A9
:10097000082B09D0002B3FD17B68434A1A603FE027
:100980007B68424A1A603BE03E4B5B6803F480039D
:100990009B0DFB603B4B5B6803F03F03BB60FB6858
:1009A000002B0DD0394ABB68B2FBF3F2354B5968C6
:1009B00047F6C0730B409B0903FB02F3FB610CE09D
:1009C000314ABB68B2FBF3F22E4B596847F6C0734D
:1009D0000B409B0903FB02F3FB612A4B5B6803F4AA
:1009E00040331B0C01335B003B61FA693B69B2FB8E
:1009F000F3F27B681A6003E07B68234A1A6000BF49
:100A0000204B9B6803F0F003BB61BB691B09BB6112
:100A10001F4ABB6913441B78DBB27B617B681A6891
:100A20007B69DA407B685A60164B9B6803F4E0539D
:100A3000BB61BB699B0ABB61154ABB6913441B7848
:100A4000DBB27B617B685A687B69DA407B689A60BD
:100A50000C4B9B6803F46043BB61BB695B0BBB61E0
:100A60000B4ABB6913441B78DBB27B617B685A6815
:100A70007B69DA407B68DA602437BD465DF8047B29
:100A8000704700BF003802400024F40000127A00D2
:100A90000400002080B483B000AF78600B46FB7088
:100AA000FB78002B06D0094B084A116B7A680A4381
:100AB0001A6306E0054B054A116B7A68D2430A4077
:100AC0001A630C37BD465DF8047B7047003802405E
:100AD00080B483B000AF78600B46FB70FB78002BCE
:100AE00006D0094B084A116C7A680A431A6406E07A
:100AF000054B054A116C7A68D2430A401A640C37D8
:100B0000BD465DF8047B70470038024080B483B076
:100B100000AF78600B46FB70FB78002B06D0094BCA
:100B2000084A516C7A680A435A6406E0054B054A44
:100B3000516C7A68D2430A405A640C37BD465DF85E
:100B4000047B70470038024080B487B000AF786003
:100B5000396000237B6100233B610023FB6000239D
:100B60007B6176E07B69012202FA03F33B613B681B
:100B70001A683B691340FB60FA683B699A4265D189
:100B80007B681A687B695B00032101FA03F3DB438E
:100B90001A407B681A607B681A683B681B791946A3
:100BA0007B695B0001FA03F31A437B681A603B68B8
:100BB0001B79012B03D03B681B79022B2ED17B685C
:100BC0009A687B695B00032101FA03F3DB431A4057
:100BD0007B689A607B689A683B685B7919467B6999
:100BE0005B0001FA03F31A437B689A607B685A68DA
:100BF0007B699BB2012101FA03F3DB431A407B6856
:100C00005A607B685A683B689B7919467B699BB23E
:100C100001FA03F39BB21A437B685A607B68DA6877
:100C20007B699BB25B00032101FA03F3DB431A40AB
:100C30007B68DA607B68DA683B68DB7919467B6938
:100C40005B0001FA03F31A437B68DA607B690133C6
:100C50007B617B690F2B85D91C37BD465DF8047B12
:100C6000704700BF80B485B000AF786013460A4675
:100C70007A807B700023FB600023BB607A787B88DE
:100C800003F007039B0002FA03F3FB607B88DB0899
:100C90009BB21A467B88DB089BB219467B680831F9
:100CA00053F821107B8803F007039B000F2000FA04
:100CB00003F3DB4319407B68083243F822107B883A
:100CC000DB089BB21A467B68083253F82220FB6887
:100CD0001343BB607B88DB089BB21A467B680832F3
:100CE000B96843F822101437BD465DF8047B70479D
:100CF00080B500AF114B114A126842F001021A6030
:100D00000E4B00229A600D4A0C4B1B6823F0847333
:100D100023F480331360094B094A5A60074B074A92
:100D2000126822F480221A60044B0022DA6000F07C
:100D30000BF8044B4FF000629A6080BD003802400F
:100D40001030002400ED00E080B483B000AF002339
:100D50007B6000233B60354B344A126842F480329A
:100D60001A60324B1B6803F400333B607B6801332D
:100D70007B603B68002B03D17B68B3F5A06FF0D19B
:100D80002A4B1B6803F40033002B02D001233B6085
:100D900001E000233B603B68012B42D1234B234AF7
:100DA000126C42F080521A64214B214A126842F4BC
:100DB00080421A601D4B1D4A92689A601B4B1B4A69
:100DC000926842F400429A60184B184A926842F4C2
:100DD000A0529A60154B174A5A60144B134A126876
:100DE00042F080721A6000BF104B1B6803F0007362
:100DF000002BF9D0104B40F205621A600B4B0B4AE6
:100E0000926822F003029A60084B084A926842F006
:100E100002029A6000BF054B9B6803F00C03082B8D
:100E2000F9D10C37BD465DF8047B704700380240AD
:100E30000070004008544007003C024080B485B078
:100E400000AF78600B4B1B68002B02D1094B0A4A9C
:100E50001A60084B1B68FB60064B1A687B681A44D3
:100E6000044B1A60FB6818461437BD465DF8047BD6
:100E7000704700BFB4080020380A002080B483B057
:100E800000AF78604FF0FF3318460C37BD465DF871
:100E9000047B704780B483B000AF786039603B68F2
:100EA0004FF400525A60002318460C37BD465DF8D7
:100EB000047B704780B483B000AF7860012318468C
:100EC0000C37BD465DF8047B704700BF80B485B029
:100ED00000AFF860B9607A60002318461437BD4649
:100EE0005DF8047B704700BF80B485B000AFF86048
:100EF000B9607A60002318461437BD465DF8047B5C
:100F0000704700BF80B586B000AFF860B9607A6006
:100F100000BF154B1B889BB203F04003002BF8D099
:100F20007B687B6118E0BB681B78002B00D116E062
:100F3000BB681B780C481946FFF708FB00BF0A483E
:100F40004021FFF76DFB0346002BF8D0BB6801334F
:100F5000BB607B69013B7B617B69002BE3DC7B68C9
:100F600018461837BD4680BD0010014080B58AB0D4
:100F700000AF786039600023FB8400237B84042366
:100F8000BB84574BFB617B689B88FB84FB8C23F005
:100F90003F03FB8407F10C031846FFF7D1FC7B6984
:100FA000FB61FA694F4BA3FB02139B0C7B84FA8C09
:100FB0007B8C1343FB847B68FA8C9A807B681B884C
:100FC0009BB223F001039AB27B681A800023FB8452
:100FD0003B681A68444B9A4215D83B681B685B0013
:100FE000FA69B2FBF3F3BB84BB8C032B01D8042357
:100FF000BB84FA8CBB8C1343FB847B8C01339AB289
:101000007B681A8440E03B68DA884BF6FF739A42AB
:1010100009D13B681A6813465B001344FA69B2FBB6
:10102000F3F3BB840EE03B681A6813469B0013443D
:101030009A001344FA69B2FBF3F3BB84BB8C43F40C
:101040008043BB84BB8CC3F30B03002B03D1BB8C4D
:1010500043F00103BB84BA8CFB8C13439BB26FEA51
:1010600043436FEA5343FB847B8C4FF4967202FB3D
:1010700003F31E4A82FB03129211DB17D31A9BB2B1
:1010800001339AB27B681A847B68FA8C9A837B68F6
:101090001B889BB243F001039AB27B681A807B687D
:1010A0001B88FB84FB8C23F4816323F00203FB8405
:1010B0003B689A883B685B8913439AB2FB8C134365
:1010C000FB847B68FA8C1A803B689A893B681B8991
:1010D00013439AB27B681A812837BD4680BD00BF92
:1010E00000127A0083DE1B43A0860100D34D6210FC
:1010F00080B483B000AF78600B46FB70FB78002BA8
:1011000008D07B681B889BB243F001039AB27B68CE
:101110001A8007E07B681B889BB223F001039AB218
:101120007B681A800C37BD465DF8047B704700BFB2
:1011300080B483B000AF78600B46FB70FB78002B67
:1011400008D07B681B889BB243F480739AB27B689B
:101150001A8007E07B681B889BB223F480739AB2E5
:101160007B681A800C37BD465DF8047B704700BF72
:1011700080B483B000AF78600B46FB70FB78002B27
:1011800008D07B681B889BB243F400739AB27B68DB
:101190001A8007E07B681B889BB223F400739AB225
:1011A0007B681A800C37BD465DF8047B704700BF32
:1011B00080B483B000AF786013460A46FA70BB7003
:1011C000BB78002B04D0FB7843F00103FB7003E0F5
:1011D000FB7823F00103FB70FB789AB27B681A82DC
:1011E0000C37BD465DF8047B704700BF80B483B008
:1011F00000AF78600B46FB70FB78002B08D07B6853
:101200001B889BB243F480639AB27B681A8007E024
:101210007B681B889BB223F480639AB27B681A8038
:101220000C37BD465DF8047B704700BF80B483B0C7
:1012300000AF78600B46FB70FB789AB27B681A822D
:101240000C37BD465DF8047B704700BF80B483B0A7
:1012500000AF78607B681B8A9BB2DBB218460C3704
:10126000BD465DF8047B704780B487B000AF7860FE
:10127000396000233B610023FB600023BB60002337
:10128000FB757B689B8A9BB2FB607B681B8B9BB268
:10129000BB60BB681B04BB60FA68BB68134323F0E8
:1012A0007F433B613A693B681A403B689A4202D1EE
:1012B0000123FB7501E00023FB75FB7D18461C37FD
:1012C000BD465DF8047B704780B487B000AF78609E
:1012D00039600023FB7500233B610023FB607B68C2
:1012E000FB603B681B0F3B613B6823F07F433B6027
:1012F0003B69002B03D0FB681433FB6005E03B68BF
:101300001B0C3B60FB681833FB60FB681A683B688A
:101310001340002B02D00123FB7501E00023FB7575
:10132000FB7D18461C37BD465DF8047B704700BF47
:1013300080B485B000AF78600023FB730023BB73DB
:101340000F237B737B68DB78002B37D0254BDB6862
:10135000DB4303F4E0631B0AFB73FB7BC3F1040371
:10136000BB737A7BFB7B42FA03F37B737B685B780E
:101370001A46BB7B02FA03F3FB737B689A787B7B8C
:101380001340DAB2FB7B1343FB73FB7B1B01FB7344
:10139000154A7B681B781344FA7B83F80023124BB1
:1013A0007A6812785209D2B27968097801F01F017F
:1013B000012000FA01F143F822100EE00A4B7A688E
:1013C00012785209D2B27968097801F01F01012020
:1013D00000FA01F1203243F822101437BD465DF8BF
:1013E000047B704700ED00E000E100E080B586B0CE
:1013F00000AF4FF400100121FFF76AFB022001212A
:10140000FFF748FB4FF440733B6002233B7101231D
:10141000BB710123FB7102237B713B4614481946C3
:10142000FFF792FB124808210422FFF71BFC10482B
:1014300009210422FFF716FC0E4BBB600023BB8181
:101440004BF6FF73FB8100233B8200237B824FF42A
:101450008043BB8207F1080307481946FFF786FD62
:1014600005480121FFF744FE1837BD4680BD00BF87
:1014700000040240A08601000054004080B582B004
:1014800000AF786013460A46FA70BB7000BF7868F8
:101490004FF40031FFF718FF0346002BF7D17868AF
:1014A0000121FFF745FE00BF78681349FFF7DCFE16
:1014B0000346002BF8D0FA78BB78786811461A46B4
:1014C000FFF776FEBB78002B08D100BF78680B4988
:1014D000FFF7CAFE0346002BF8D00AE0BB78012BC9
:1014E00007D100BF78680649FFF7BEFE0346002B10
:1014F000F8D00837BD4680BD010003008200070018
:101500000200030080B582B000AF78600B46FB702C
:1015100000BF78680649FFF7A7FE0346002BF8D006
:10152000FB7878681946FFF781FE0837BD4680BD15
:101530008000070080B584B000AF78607868012132
:10154000FFF754FE00BF78680749FFF78DFE03469A
:10155000002BF8D07868FFF779FE0346FB73FB7B1E
:1015600018461037BD4680BD4000030080B584B0EA
:1015700000AF786078680021FFF738FE78680121B5
:10158000FFF7F6FD00BF78680749FFF76DFE0346D9
:10159000002BF8D07868FFF759FE0346FB73FB7BFE
:1015A00018461037BD4680BD4000030080B582B0AC
:1015B00000AF786078680121FFF7DAFD00BF786836
:1015C0000449FFF751FE0346002BF8D00837BD460B
:1015D00080BD00BF8400070080B500AF1F4B1B8893
:1015E0009BB2002B38D01E4B1B889BB29AB21D4B6E
:1015F0001B889BB29BB2D31A9BB29AB21A4B1A8029
:10160000194B1B889BB21BB2002B09DA164B1B88A7
:101610009BB29BB203F6FF739BB29AB2124B1A8035
:10162000114B1B889BB21BB2184600F02FFE0246DE
:101630000B46104619464FF000020C4B00F0B6FF67
:1016400002460B461046194601F098F80246084B30
:101650001A60024B00221A8080BD00BF0C0A0020D5
:101660000E0A0020180A00200A0A002000C02640A6
:10167000100A002080B500AF1948042100F06EFB6D
:101680000346012B2AD11648042100F091FB154B8B
:101690001B889BB2002B0CD1114800F0BBFA03460B
:1016A0009AB2114B1A800F4B01221A8000F0BAF83F
:1016B00014E00C4B1B889BB21BB2012B0ED10848C7
:1016C00000F0A8FA03469AB2084B1A80084B012290
:1016D0001A80044B00221A8000F08CF880BD00BFF5
:1016E00000040040140A00200E0A0020180A0020FE
:1016F0000C0A002080B500AF00F05CF800F020F884
:10170000094B00221A80094B00221A80084B002244
:101710001A80084B00221A80074B00221A80074BC0
:101720004FF000021A6080BD0E0A0020180A002047
:101730000A0A0020140A00200C0A0020100A0020C7
:1017400080B588B000AF02200121FFF7C1F907F191
:1017500010031846FFF7F4F83B1D184600F0CCF9CB
:101760005323BB8040F6FF73BB600023BB81002383
:10177000FB803B1D0E48194600F054F900F03AF882
:101780000B48012100F0D2F909480421012200F0A0
:10179000C1FA1D233B7000237B700123BB70012322
:1017A000FB703B461846FFF7C3FD2037BD4680BDA2
:1017B0000004004080B582B000AF01200121FFF796
:1017C00069F900233B710023FB7102237B718023A5
:1017D0003B6002233B71064807210222FFF742FAD1
:1017E0003B4603481946FFF7AFF90837BD4680BDB1
:1017F0000000024080B584B000AF0423BB8000230A
:10180000FB8001233B8100237B810023BB813B1DA7
:101810000348194600F0AAF91037BD4680BD00BF45
:101820000004004080B584B000AF0423BB800223D5
:10183000FB8001233B8100237B810023BB813B1D77
:101840000348194600F092F91037BD4680BD00BF2D
:101850000004004080B483B000AF0346FB710A4B24
:10186000FA791A70094B02221A70094B00221A7079
:10187000084BAA221A70064B1A78064B5A700C377E
:10188000BD465DF8047B7047160A0020300A002030
:10189000080A00201C0A002080B582B000AF002397
:1018A000FB711C4B1A781C4B5A700023BB711FE054
:1018B000BB79194AD35C1948194601F033FABB7950
:1018C000154AD35CFA791046194600F07FF80346B2
:1018D000FB71BA79124B1B78023B9A4205D1104B2F
:1018E0001B78013B0C4AF979D154BB790133BB71A8
:1018F0000B4B1B78BA799A42DAD3064B1B7801332B
:10190000DAB2044B1A70074B02221A700837BD4630
:1019100080BD00BF080A00201C0A0020247C0008AB
:10192000160A0020300A002080B582B000AF78602F
:101930000C4B1B787A6811780B4AD154094B1B78F1
:101940000133DAB2074B1A70064B1B781A46074B65
:101950001B78013B9A4201D1FFF79EFF0837BD4635
:1019600080BD00BF300A00201C0A0020160A00209B
:1019700080B582B000AF7860114B1B787A6812880E
:10198000120A92B2D1B20F4AD1540D4B1B780133D7
:101990007A681288D1B20B4AD154094B1B780233B2
:1019A000DAB2074B1A70064B1B781A46064B1B78A7
:1019B000013B9A4201D1FFF76FFF0837BD4680BD5A
:1019C000300A00201C0A0020160A002080B485B0CE
:1019D00000AF02460B46FA71BB71FA79BB795340EE
:1019E000FB710023FB7312E0FB7903F00103002B72
:1019F00007D0FB795B08DBB283F07303DB43FB7139
:101A000002E0FB795B08FB71FB7B0133FB73FB7B23
:101A1000072BE9D9FB7918461437BD465DF8047BDE
:101A2000704700BF80B485B000AF78603960002394
:101A3000FB817B681B88FB817A68284B9A4213D014
:101A40007A68274B9A420FD07B68B3F1804F0BD056
:101A50007A68244B9A4207D07A68234B9A4203D083
:101A60007A68224B9A4208D1FB8923F07003FB81EC
:101A70003B685A88FB891343FB817A681C4B9A4266
:101A80000CD07A681B4B9A4208D0FB8923F4407330
:101A9000FB813B681A89FB891343FB817B68FA89C8
:101AA0001A803B685A687B68DA623B681A887B68F0
:101AB0001A857A68094B9A4203D07A68084B9A4291
:101AC00004D13B689B7A1A467B681A867B680122A0
:101AD0009A821437BD465DF8047B704700000140D0
:101AE000000401400004004000080040000C0040D9
:101AF000001000400014004080B483B000AF786054
:101B00007B684FF0FF325A607B6800221A807B6846
:101B100000221A817B6800225A807B6800229A7218
:101B20000C37BD465DF8047B704700BF80B483B0BE
:101B300000AF78600B46FB70FB78002B08D07B6809
:101B40001B889BB243F001039AB27B681A8007E0BE
:101B50007B681B889BB223F001039AB27B681A80D2
:101B60000C37BD465DF8047B704700BF80B582B07E
:101B700000AF786039603B681B88002B0FD13B6851
:101B800059883B689A883B681B89786800F020F97F
:101B90003B68DB887868194600F048F836E03B6817
:101BA0001B88042B0FD13B6859883B689A883B6897
:101BB0001B89786800F048F93B68DB88786819462B
:101BC00000F050F822E03B681B88082B0FD13B68DF
:101BD00059883B689A883B681B89786800F07AF9D5
:101BE0003B68DB887868194600F05AF80EE03B68DD
:101BF00059883B689A883B681B89786800F0ACF983
:101C00003B68DB887868194600F066F80837BD46FF
:101C100080BD00BF80B483B000AF78607B689B6BF1
:101C200018460C37BD465DF8047B704780B483B01E
:101C300000AF78600B467B807B681B8B9BB223F0E8
:101C40000C039AB27B681A837B681B8B9AB27B88E1
:101C500013439AB27B681A830C37BD465DF8047B48
:101C6000704700BF80B483B000AF78600B467B80C4
:101C70007B681B8B9BB223F440639AB27B681A8308
:101C80007B681B8B9AB27B881B029BB213439AB270
:101C90007B681A830C37BD465DF8047B704700BF34
:101CA00080B483B000AF78600B467B807B689B8BF1
:101CB0009BB223F00C039AB27B689A837B689B8B60
:101CC0009AB27B8813439AB27B689A830C37BD46DD
:101CD0005DF8047B704700BF80B483B000AF7860CC
:101CE0000B467B807B689B8B9BB223F440639AB24C
:101CF0007B689A837B689B8B9AB27B881B029BB222
:101D000013439AB27B689A830C37BD465DF8047B17
:101D1000704700BF80B483B000AF786013460A46B6
:101D20007A807B707B78002B08D07B689B899AB285
:101D30007B8813439AB27B689A8109E07B689B8910
:101D40009AB27B88DB439BB213409AB27B689A813C
:101D50000C37BD465DF8047B704700BF80B485B08A
:101D600000AF78600B467B800023FB730023BB81B0
:101D700000237B817B681B8A9AB27B881340BB81DE
:101D80007B689B899AB27B8813407B81BB89002B3F
:101D900005D07B89002B02D00123FB7301E00023D7
:101DA000FB73FB7B18461437BD465DF8047B704718
:101DB00080B483B000AF78600B467B807B88DB43C8
:101DC0009AB27B681A820C37BD465DF8047B704777
:101DD00080B487B000AFF86079813A81FB8000233E
:101DE000FB820023BB82FB681B8C9BB223F00103A8
:101DF0009AB2FB681A84FB681B8BFB82FB681B8C06
:101E0000BB82FB8A23F0F303FB82FB881B019AB29F
:101E10003B8913439AB2FB8A1343FB82BB8A23F0AC
:101E20000A03BB827A89BB8A13439BB243F0010346
:101E3000BB82FB68FA8A1A83FB68BA8A1A841C3749
:101E4000BD465DF8047B704780B487B000AFF86092
:101E500079813A81FB800023FB820023BB8200232F
:101E60007B82FB681B8C9BB223F010039AB2FB6849
:101E70001A84FB681B8BFB82FB681B8CBB827B89F3
:101E80001B017B82FB8A23F440731B051B0DFB8225
:101E9000FB881B039AB2FB8A1343FB823B891B021C
:101EA0009AB2FB8A1343FB82BB8A23F0A003BB8256
:101EB0007A8ABB8A13439BB243F01003BB82FB6850
:101EC000FA8A1A83FB68BA8A1A841C37BD465DF801
:101ED000047B704780B487B000AFF86079813A81A5
:101EE000FB800023FB820023BB8200237B82FB68F4
:101EF0001B8C9BB223F480739AB2FB681A84FB6834
:101F00009B8BFB82FB681B8CBB827B891B027B82C9
:101F1000FB8A23F0F303FB82FB881B019AB23B8907
:101F200013439AB2FB8A1343FB82BB8A23F42063D8
:101F3000BB827A8ABB8A13439BB243F48073BB8211
:101F4000FB68FA8A9A83FB68BA8A1A841C37BD46F2
:101F50005DF8047B704700BF80B487B000AFF860C5
:101F600079813A81FB800023FB820023BB8200231E
:101F70007B82FB681B8C9BB223F480539AB2FB6874
:101F80001A84FB689B8BFB82FB681B8CBB827B8962
:101F90001B037B82FB8A23F440731B051B0DFB8212
:101FA0003B891B029AB2FB8A1343FB82FB881B030B
:101FB0009AB2FB8A1343FB82BB8A23F400535B046F
:101FC0005B0CBB827A8ABB8A13439BB243F4805377
:101FD000BB82FB68FA8A9A83FB68BA8A1A841C3728
:101FE000BD465DF8047B704781F0004102E000BF10
:101FF00083F0004330B54FEA41044FEA430594EAC9
:10200000050F08BF90EA020F1FBF54EA000C55EA03
:10201000020C7FEA645C7FEA655C00F0E2804FEAD4
:102020005454D4EB5555B8BF6D420CDD2C4480EAB6
:10203000020281EA030382EA000083EA010180EAE6
:10204000020281EA0303362D88BF30BD11F0004F34
:102050004FEA01314FF4801C4CEA113102D040426A
:1020600061EB410113F0004F4FEA03334CEA1333A5
:1020700002D0524263EB430394EA050F00F0A780BD
:10208000A4F10104D5F1200E0DDB02FA0EFC22FAB8
:1020900005F2801841F1000103FA0EF2801843FAAC
:1020A00005F359410EE0A5F120050EF1200E012A9D
:1020B00003FA0EFC28BF4CF0020C43FA05F3C018DB
:1020C00051EBE37101F0004507D54FF0000EDCF154
:1020D000000C7EEB00006EEB0101B1F5801F1BD3FD
:1020E000B1F5001F0CD349085FEA30004FEA3C0C01
:1020F00004F101044FEA445212F5800F80F09A80F7
:10210000BCF1004F08BF5FEA500C50F1000041EBFA
:10211000045141EA050130BD5FEA4C0C404141EBFE
:10212000010111F4801FA4F10104E9D191F0000F25
:1021300004BF01460020B1FA81F308BF2033A3F1A8
:102140000B03B3F120020CDA0C3208DD02F1140C9F
:10215000C2F10C0201FA0CF021FA02F10CE002F1DA
:102160001402D8BFC2F1200C01FA02F120FA0CFCD3
:10217000DCBF41EA0C019040E41AA2BF01EB04511C
:10218000294330BD6FEA04041F3C1CDA0C340EDC1A
:1021900004F11404C4F1200220FA04F001FA02F35D
:1021A00040EA030021FA04F345EA030130BDC4F11B
:1021B0000C04C4F1200220FA02F001FA04F340EA10
:1021C0000300294630BD21FA04F0294630BD94F0C1
:1021D000000F83F4801306BF81F480110134013DA8
:1021E0004EE77FEA645C18BF7FEA655C29D094EA19
:1021F000050F08BF90EA020F05D054EA000C04BF97
:102200001946104630BD91EA030F1EBF0021002081
:1022100030BD5FEA545C05D14000494128BF41F020
:10222000004130BD14F580043CBF01F5801130BD84
:1022300001F0004545F0FE4141F470014FF000000F
:1022400030BD7FEA645C1ABF194610467FEA655CC0
:102250001CBF0B46024650EA013406BF52EA033562
:1022600091EA030F41F4002130BD00BF90F0000F50
:1022700004BF0021704730B54FF4806404F132048C
:102280004FF000054FF0000150E700BF90F0000F45
:1022900004BF0021704730B54FF4806404F132046C
:1022A00010F0004548BF40424FF000013EE700BF3C
:1022B00042004FEAE2014FEA31014FEA02701FBFCC
:1022C00012F07F4393F07F4F81F06051704792F09E
:1022D000000F14BF93F07F4F704730B54FF4607418
:1022E00001F0004521F0004120E700BF50EA010263
:1022F00008BF704730B54FF000050AE050EA010210
:1023000008BF704730B511F0004502D5404261EB7F
:1023100041014FF4806404F132045FEA915C3FF4C0
:10232000DCAE4FF003025FEADC0C18BF03325FEA59
:10233000DC0C18BF033202EBDC02C2F1200300FA0E
:1023400003FC20FA02F001FA03FE40EA0E0021FA33
:1023500002F11444C1E600BF70B54FF0FF0C4CF41D
:10236000E06C1CEA11541DBF1CEA135594EA0C0FD3
:1023700095EA0C0F00F0DEF82C4481EA030621EA0E
:102380004C5123EA4C5350EA013518BF52EA033549
:1023900041F4801143F4801338D0A0FB02CE4FF0FB
:1023A0000005E1FB02E506F00042E0FB03E54FF02B
:1023B0000006E1FB03569CF0000F18BF4EF0010E23
:1023C000A4F1FF04B6F5007F64F5407404D25FEA1F
:1023D0004E0E6D4146EB060642EAC62141EA5551D2
:1023E0004FEAC52040EA5E504FEACE2EB4F1FD0C14
:1023F00088BFBCF5E06F1ED8BEF1004F08BF5FEA92
:10240000500E50F1000041EB045170BD06F0004643
:1024100046EA010140EA020081EA0301B4EB5C04F0
:10242000C2BFD4EB0C0541EA045170BD41F48011E8
:102430004FF0000E013C00F3AB8014F1360FDEBF0D
:10244000002001F0004170BDC4F10004203C35DAE9
:102450000C341BDC04F11404C4F1200500FA05F36C
:1024600020FA04F001FA05F240EA020001F000420D
:1024700021F0004110EBD37021FA04F642EB060183
:102480005EEA430E08BF20EAD37070BDC4F10C04AD
:10249000C4F1200500FA04F320FA05F001FA04F271
:1024A00040EA020001F0004110EBD37041F100015D
:1024B0005EEA430E08BF20EAD37070BDC4F1200568
:1024C00000FA05F24EEA020E20FA04F301FA05F2D0
:1024D00043EA020321FA04F001F0004121FA04F278
:1024E00020EA020000EBD3705EEA430E08BF20EA48
:1024F000D37070BD94F0000F0FD101F00046400082
:1025000041EB010111F4801F08BF013CF7D041EA03
:10251000060195F0000F18BF704703F00046520007
:1025200043EB030313F4801F08BF013DF7D043EAD8
:102530000603704794EA0C0F0CEA135518BF95EA8E
:102540000C0F0CD050EA410618BF52EA4306D1D115
:1025500081EA030101F000414FF0000070BD50EA34
:10256000410606BF1046194652EA430619D094EABE
:102570000C0F02D150EA013613D195EA0C0F05D1A8
:1025800052EA03361CBF104619460AD181EA0301FC
:1025900001F0004141F0FE4141F470014FF00000B4
:1025A00070BD41F0FE4141F4780170BD70B54FF04F
:1025B000FF0C4CF4E06C1CEA11541DBF1CEA1355CF
:1025C00094EA0C0F95EA0C0F00F0A7F8A4EB0504B1
:1025D00081EA030E52EA03354FEA013100F08880A8
:1025E0004FEA03334FF0805545EA131343EA126371
:1025F0004FEA022245EA111545EA10654FEA002626
:102600000EF000419D4208BF964244F1FD0404F5DE
:10261000407402D25B084FEA3202B61A65EB03053A
:102620005B084FEA32024FF480104FF4002CB6EBF7
:10263000020E75EB030E22BFB61A754640EA0C0077
:102640005B084FEA3202B6EB020E75EB030E22BFB7
:10265000B61A754640EA5C005B084FEA3202B6EBF8
:10266000020E75EB030E22BFB61A754640EA9C00B7
:102670005B084FEA3202B6EB020E75EB030E22BF87
:10268000B61A754640EADC0055EA060E18D04FEA45
:10269000051545EA16754FEA06164FEAC30343EAE5
:1026A00052734FEAC2025FEA1C1CC0D111F4801FB2
:1026B0000BD141EA00014FF000004FF0004CB6E7AB
:1026C00011F4801F04BF01430020B4F1FD0C88BF4A
:1026D000BCF5E06F3FF6AFAEB5EB030C04BFB6EB55
:1026E000020C5FEA500C50F1000041EB045170BD48
:1026F0000EF0004E4EEA113114EB5C04C2BFD4EB75
:102700000C0541EA045170BD41F480114FF0000EF8
:10271000013C90E645EA060E8DE60CEA135594EA74
:102720000C0F08BF95EA0C0F3FF43BAF94EA0C0F77
:102730000AD150EA01347FF434AF95EA0C0F7FF4EC
:1027400025AF104619462CE795EA0C0F06D152EA40
:1027500003353FF4FDAE1046194622E750EA410624
:1027600018BF52EA43067FF4C5AE50EA41047FF435
:102770000DAF52EA43057FF4EBAE12E74FEA410298
:10278000B2F1E04324BFB3F5001CDCF1FE5C0DD9CF
:1027900001F0004C4FEAC0024CEA5070B2F1004F19
:1027A00040EB830008BF20F00100704711F0804F1C
:1027B00021D113F13872BCBF01F00040704741F4E1
:1027C00080114FEA5252C2F11802C2F1200C10FAE5
:1027D0000CF320FA02F018BF40F001004FEAC123C9
:1027E0004FEAD32303FA0CFC40EA0C0023FA02F36D
:1027F0004FEA4303CCE77FEA625307D150EA013343
:102800001EBF4FF0FE4040F44000704701F0004012
:1028100040F0FE4040F40000704700BF80F00040F0
:1028200002E000BF81F0004142001FBF5FEA4103A8
:1028300092EA030F7FEA226C7FEA236C6AD04FEAA8
:102840001262D2EB1363C1BFD218414048404140ED
:10285000B8BF5B42192B88BF704710F0004F40F49F
:10286000000020F07F4018BF404211F0004F41F4BB
:10287000000121F07F4118BF494292EA030F3FD087
:10288000A2F1010241FA03FC10EB0C00C3F120039A
:1028900001FA03F100F0004302D5494260EB400029
:1028A000B0F5000F13D3B0F1807F06D340084FEA94
:1028B000310102F10102FE2A51D2B1F1004F40EB89
:1028C000C25008BF20F0010040EA030070474900F1
:1028D00040EB000010F4000FA2F10102EDD1B0FABC
:1028E00080FCACF1080CB2EB0C0200FA0CF0AABFB1
:1028F00000EBC25052421843BCBFD040184370474F
:1029000092F0000F81F4000106BF80F40000013254
:10291000013BB5E74FEA41037FEA226C18BF7FEA2B
:10292000236C21D092EA030F04D092F0000F08BF6D
:102930000846704790EA010F1CBF0020704712F054
:102940007F4F04D1400028BF40F00040704712F193
:1029500000723CBF00F50000704700F0004343F0F8
:10296000FE4040F4000070477FEA226216BF08462E
:102970007FEA23630146420206BF5FEA412390EAF1
:10298000010F40F4800070474FF0000304E000BFE7
:1029900010F0004348BF40425FEA000C08BF704798
:1029A00043F0964301464FF000001CE050EA01025C
:1029B00008BF70474FF000030AE000BF50EA010271
:1029C00008BF704711F0004302D5404261EB41015E
:1029D0005FEA010C02BF84460146002043F0B64383
:1029E00008BFA3F18053A3F50003BCFA8CF2083AA8
:1029F000A3EBC25310DB01FA02FC634400FA02FCB1
:102A0000C2F12002BCF1004F20FA02F243EB0200B7
:102A100008BF20F00100704702F1200201FA02FC19
:102A2000C2F1200250EA4C0021FA02F243EB02000C
:102A300008BF20EADC7070474FF0FF0C1CEAD05250
:102A40001EBF1CEAD15392EA0C0F93EA0C0F6FD011
:102A50001A4480EA010C400218BF5FEA41211ED0EF
:102A60004FF0006343EA501043EA5111A0FB0131DB
:102A70000CF00040B1F5000F3EBF490041EAD371B0
:102A80005B0040EA010062F17F02FD2A1DD8B3F12C
:102A9000004F40EBC25008BF20F00100704790F09B
:102AA000000F0CF0004C08BF49024CEA502040EAED
:102AB00051207F3AC2BFD2F1FF0340EAC2507047B3
:102AC00040F400004FF00003013A5DDC12F1190FF1
:102AD000DCBF00F000407047C2F10002410021FA63
:102AE00002F1C2F1200200FA02FC5FEA310040F17B
:102AF000000053EA4C0308BF20EADC70704792F0F4
:102B0000000F00F0004C02BF400010F4000F013A2B
:102B1000F9D040EA0C0093F0000F01F0004C02BF26
:102B2000490011F4000F013BF9D041EA0C018FE795
:102B30000CEAD15392EA0C0F18BF93EA0C0F0AD09B
:102B400030F0004C18BF31F0004CD8D180EA0100C1
:102B500000F00040704790F0000F17BF90F0004F5A
:102B6000084691F0000F91F0004F14D092EA0C0F3C
:102B700001D142020FD193EA0C0F03D14B0218BFCF
:102B8000084608D180EA010000F0004040F0FE4015
:102B900040F40000704740F0FE4040F440007047B1
:102BA0004FF0FF0C1CEAD0521EBF1CEAD15392EA30
:102BB0000C0F93EA0C0F69D0A2EB030280EA010C20
:102BC00049024FEA402037D04FF0805343EA1111B9
:102BD00043EA10130CF000408B4238BF5B0042F117
:102BE0007D024FF4000C8B4224BF5B1A40EA0C00BC
:102BF000B3EB510F24BFA3EB510340EA5C00B3EBEE
:102C0000910F24BFA3EB910340EA9C00B3EBD10FDB
:102C100024BFA3EBD10340EADC001B0118BF5FEA2D
:102C20001C1CE0D1FD2A3FF650AF8B4240EBC25056
:102C300008BF20F0010070470CF0004C4CEA502017
:102C40007F32C2BFD2F1FF0340EAC250704740F466
:102C500000004FF00003013A37E792F0000F00F058
:102C6000004C02BF400010F4000F013AF9D040EAD6
:102C70000C0093F0000F01F0004C02BF490011F46A
:102C8000000F013BF9D041EA0C0195E70CEAD15362
:102C900092EA0C0F08D142027FF47DAF93EA0C0F49
:102CA0007FF470AF084676E793EA0C0F04D14B022D
:102CB0003FF44CAF08466EE730F0004C18BF31F0DF
:102CC000004CCAD130F000427FF45CAF31F00043D9
:102CD0007FF43CAF5FE700BF4FEA4002B2F1FE4F26
:102CE0000FD34FF09E03B3EB12620DD94FEA0023CE
:102CF00043F0004310F0004F23FA02F018BF4042A7
:102D000070474FF00000704712F1610F01D142028D
:102D100005D110F0004008BF6FF0004070474FF041
:102D2000000070470FB400B5074A83B004AB1068C9
:102D300053F8042B8168019300F078F803B05DF834
:102D400004EB04B0704700BF40040020034B1B6835
:102D500001469A68184603F025BF00BF40040020D2
:102D6000F0B5044689B008460D4600F02FF8A36878
:102D7000114F9A890495022100F1010E012604AD3C
:102D8000029191040590CDF80CE006970796019505
:102D900006D4596E42F4005221F400519A815966CA
:102DA0002046194601AA02F097FD00280CBF0A2010
:102DB0004FF0FF3009B0F0BD287C0008024B0146FF
:102DC0001868FFF7CDBF00BF4004002020F00301CA
:102DD00010F00300C0F1000051F8043B00F1040CB6
:102DE0004FEACC0C6FF000021CBF22FA0CF2134326
:102DF0004FF0010C4CEA0C2C4CEA0C4CA3EB0C02EF
:102E000022EA030212EACC1204BF51F8043B043058
:102E1000F4D013F0FF0F1FBF013013F47F4F0130C8
:102E200013F47F0F18BF0130704700BF2DE9F04F3A
:102E3000C9B01C4689460A920D9002F009FF00684D
:102E40001590FFF7C3FF0D9D18900F941DB1AB6B4C
:102E5000002B00F00981B9F80C2093B299040AD430
:102E6000D9F8641042F4005321F40051A9F80C3051
:102E7000C9F864109BB21A0740F1C080D9F810203D
:102E8000002A00F0BB8003F01A030A2B00F0C28076
:102E900038ACA44608942B9400250024CDE91645AF
:102EA000002311932D932C931A9319931093664634
:102EB0000A9D2B78002B00F0DB80252B00F0D880BA
:102EC0006A1C02E0252B00F08B8014460132237827
:102ED000002BF7D10A98251A7DB12C9B2D9A0A98C0
:102EE000306001332A44072B75602D922C9300F338
:102EF000A48008361099294410912378002B00F003
:102F0000A4800023651C94F801808DF88F304FF069
:102F1000FF341A460E9309930A950B942B460133FE
:102F2000A8F12001582900F2F883DFE811F03702F8
:102F3000F603F6030303F603F603F603F603F603BC
:102F4000F6033E023302F60360003503F603750311
:102F50007C037C037C037C037C037C037C037C0379
:102F60007C03F603F603F603F603F603F603F60313
:102F7000F603F603F60353039D03F6039D03F603DE
:102F8000F603F603F6038D03F603F603D403F60304
:102F9000F603F603F603F603A302F603F603C302F1
:102FA000F603F603F603F603F603F603F603F60359
:102FB000F603F6030A031C039D039D039D03D90238
:102FC0001C03F603F603E202F603EE020A021C02F9
:102FD0004B02F6035402F603A300F603F6037B024A
:102FE0000A99651A78E70E9C0F9164420E94099D28
:102FF00045F00405099593F8008090E70D9849463F
:1030000001F0F2F9A0B9B9F80C3003F01A030A2B59
:103010007FF43EAFB9F90E30002BFFF639AF0D98B3
:103020000A9A4946234601F0A3F949B0BDE8F08F5A
:103030004FF0FF3049B0BDE8F08F0D9849462BAAFC
:1030400004F07AF840B938AE54E72D9B23B10D98BF
:1030500049462BAA04F070F8B9F80C305B06E7D4A7
:10306000109849B0BDE8F08F284602F09BFAF2E6CE
:103070000A9C42E7099C0A93A20640F106820F9D32
:10308000EB1D23F0070303F1080CD3E90045CDF84D
:103090003CC001234FF0000A8DF88FA00B99002946
:1030A00005DBDDF824C02CF0800CCDF824C054EAF8
:1030B000050040F04B830B99002940F04783002B1B
:1030C00040F0BD84DDF824C01CF0010F00F0B7848F
:1030D00048AF302307F8413D089DEC1BDDF82CC0BC
:1030E00000256445A8BFA446CDF830C01495BAF1B8
:1030F000000F02D00C9D01350C95099B13F00203C3
:10310000129302D00C9D02350C95DDF824C01CF002
:10311000840CCDF84CC040F016830E9DDDF830C015
:10312000CCEB050BBBF1000F40F30D83BBF1100F8F
:103130002D992C9ADFF828A527DD1B9710255746D7
:10314000A2460D9C06E0ABF1100BBBF1100F06F18F
:10315000080617DD01321031072A2D912C923760B5
:103160007560F0DD204649462BAA03F0E5FF0028F4
:103170007FF472AFABF1100BBBF1100F2D992C9AAD
:1031800038AEE7DC5446BA461B9F01320BEB010C0C
:10319000072ACDF8B4C02C9286E8000C00F39E8478
:1031A0009DF88FA00836BAF1000F0FD02C9B013389
:1031B0000CF1010C0DF18F010122072BCDF8B4C0E9
:1031C0002C9386E8060000F320840836129B73B126
:1031D0002C9B01330CF1020C24A90222072BCDF801
:1031E000B4C02C9386E8060000F31C840836139DB7
:1031F000802D00F04C830B9A151B002D3DDD102D0A
:103200002C9BDFF860A42CDD51460B94AA464FF0AE
:10321000100B62460D9C0D4606E0AAF1100ABAF1A9
:10322000100F06F1080617DD01331032072B2D921F
:103230002C9386E82008F0DD204649462BAA03F0AF
:103240007BFF00287FF408AFAAF1100ABAF1100F33
:103250002D9A2C9B38AEE7DC94460B9C2A465546AB
:1032600092460133AC44072BCDF8B4C02C93C6F87A
:1032700000A0756000F3BD830836099DEB0500F1E1
:10328000A6822C9B37600133A444072BCDF8B4C031
:1032900074602C9300F397830836099C620740D52D
:1032A0000E9D0C982C1A002C3BDD102C2C9BDFF86B
:1032B000B0A322DD10256246DDF83480574604E0D5
:1032C000103C102C06F1080615DD01331032072BD7
:1032D0002D922C9337607560F2DD404649462BAA4B
:1032E00003F02AFF00287FF4B7AE103C102C2D9A73
:1032F0002C9B38AEE9DC9446BA460133A444072B34
:10330000CDF8B4C02C93C6F800A0746009DD0D9808
:1033100049462BAA03F010FF00287FF49DAEDDF88C
:10332000B4C0109C0C980E9DA842ACBF2418641920
:103330001094BCF1000F40F0528300232C9338AE60
:10334000B6E5DDF824C00A931CF0200300F0CE811E
:103350000F9CE31D23F0070303F108050F95D3E944
:103360000045002396E60F9ADDF824C00A93151D48
:1033700030234FF078084CF0020CB7488DF89030AD
:103380000F951468CDF824C000258DF891801A900F
:1033900002237FE693F800802B22C0E593F800809B
:1033A000002A7FF4BCAD2022B9E50F9C0F9D246854
:1033B0000E94002C05F10401FFF615AE0F9193F861
:1033C0000080ACE5DDF824C04CF0200CCDF824C022
:1033D00093F80080A3E50F9C0A9327684FF0000A3A
:1033E0008DF88FA0251D002F00F06B860B9C002C04
:1033F0003846C0F216865146224602F039FF0028B0
:1034000000F0AB860B9C0F95C01BA042B8BF0446D2
:1034100024EAE475CDF82CA0CDF850A00C959DF8C9
:103420008FA064E6099D8C4C0A93AF061A948DF820
:103430008F2047D5DDF83CC00CF1070323F00703CC
:1034400003F108040F94D3E90045DDF824C01CF013
:10345000010F00F0F88254EA050000F0F4823023F6
:103460004CF0020C8DF890308DF89180CDF824C08E
:1034700002230FE6DDF824C00A934CF0100CCDF8BF
:1034800024C0099CA2063FF5FAAD099CE30600F1B1
:103490003483DDF824C01CF0400F00F02E83DDF8EB
:1034A0003CC0BCF800400CF1040C00250123CDF811
:1034B0003CC0EFE5099D694C0A93AF068DF88F205B
:1034C0001A94B7D4099DED0640F1EC84DDF83CC0B8
:1034D000DCF800400CF1040CCDF83CC00025B4E74A
:1034E000DDF824C04CF0400CCDF824C093F80080E7
:1034F00015E593F80080B8F16C0F194600F07C8553
:10350000099D45F01005099509E5DDF824C00A93E9
:103510001CF0200F8DF88F2000F0A8840F9C2168EC
:10352000109CE5172B460F9D224604350F95C1E9E7
:103530000023BDE4099D45F00105099593F800803D
:10354000EDE40F9A0F9D0A9312688DF8B8200023BE
:10355000012404359A460C940F958DF88F300B9307
:1035600014932EAFC9E5099C0A93A3068DF88F200A
:103570003CD50F9DE91D21F00701D1E90023083159
:103580000F9114461D46002A73F10000C0F2D1834A
:103590009DF88FA0012381E593F80080B8F12A0FF0
:1035A00003F1010000F0BD86A8F13001092998BFA0
:1035B000002300F21B8610F8018B03EB830301EB61
:1035C0004303A8F130010929F5D943EAE3730B93CA
:1035D0000346A5E4DDF824C00A934CF0100CCDF8A6
:1035E00024C0099C8DF88F20A306C2D4DDF824C026
:1035F0001CF0100F40F0B382099C670640F1AF82C7
:10360000DDF83CC0BCF900400CF1040CE517224683
:103610002B46CDF83CC0B6E7099D45F080050995DD
:1036200093F800807BE40024A8F130010E9420463A
:1036300013F8018B00EB800001EB4000A8F1300192
:103640000929F5D90E906BE4099D45F00805099507
:1036500093F8008063E400BF607C00084C7C0008A5
:103660002C7C0008807C00080F9D099C0A93EB1DB0
:1036700025078DF88F2023F0070340F10B84D3E951
:103680000045CDE9164503F1080CCDF83CC0DDE955
:10369000160103F099FC0128DDE9160140F053837F
:1036A0000022002303F088FF002840F03C859DF8AD
:1036B0008FA003250C95099D9E4F9F4B25F08005FB
:1036C0000024099500250B94B8F1470FD8BF1F4679
:1036D000032414950BE5099D0A9345F010050995FF
:1036E000DDF824C01CF020037FF432AEDDF824C0E6
:1036F0001CF0100240F03F82DDF824C01CF04003B3
:1037000000F03982DDF83CC0BCF800400CF1040C3C
:1037100013460025CDF83CC0BCE40A938DF88F20F9
:10372000B8F1000F3FF491AC00234FF0010C9A4622
:10373000CDF830C08DF8B8808DF88F300B9314938E
:1037400064462EAFD9E4DDF8B4C02CE5012B00F0BF
:10375000E380022B0DF1DF0318D1DDF868C01946B4
:1037600004F00F00220942EA05720F462B091CF8EB
:103770000010397052EA030014461D4607F1FF316C
:10378000EED1089DCDE91E23EC1BA7E4E00840EA3A
:10379000457004F00702E908303250EA010C1F4678
:1037A0001A7004460D4603F1FF33EFD1099CCDE9B1
:1037B0001C01E007394640F1B880302A00F0B5809E
:1037C000089D1F463023EC1B01F8013C86E4B8F14C
:1037D000650F40F3B780DDE9160100220023CDF824
:1037E0001CC003F0DFFEDDF81CC0002800F02E81B5
:1037F0002C9B524A326001330CF1010C0122072B41
:10380000CDF8B4C02C93726000F36C830836259B0E
:10381000119CA34203DB099DEF077FF53EAD2C9B76
:10382000189D159C34600133AC44072BCDF8B4C00F
:1038300075602C9300F3E9830836119D6C1E002CF3
:103840007FF72BAD102C2C9BDFF8F4A040F39C816C
:1038500010256246DDF83480574604E00836103CF7
:10386000102C40F38F8101331032072B2D922C93B3
:1038700037607560F2DD404649462BAA03F05CFCD8
:1038800000287FF4E9AB2D9A2C9B38AEE7E70E9821
:103890000C99451A002D7FF7AEAC102D2C9BDFF84C
:1038A000A0A02CDD51461294AA464FF0100B6246A0
:1038B0000D9C0D4606E0AAF1100ABAF1100F06F1B0
:1038C000080617DD01331032072B2D922C9386E862
:1038D0002008F0DD204649462BAA03F02DFC0028E5
:1038E0007FF4BAABAAF1100ABAF1100F2D9A2C9BF3
:1038F00038AEE7DC9446129C2A4655469246013380
:10390000AC44072BCDF8B4C02C93C6F800A075606A
:1039100000F3028208366EE4002D08BF0A2C80F006
:103920003F8148AF303407F8414D089DEC1BFFF74D
:10393000D5BB00BF407C00083C7C00087C7C0008B4
:10394000807C0008119C012C2C9C40F3A781013441
:103950000CF101050123072C2D952C943760736021
:1039600000F3B78108361898159931600134054481
:10397000072C2D952C94706000F3C2810836DDE988
:1039800016010022002303F00DFE002840F0BD8048
:10399000119A0134531E01371D44072C2C942D9588
:1039A0003760736000F389810836DDF864C0013444
:1039B000AC44199DCDF8B4C027AB072C2C9486E8F5
:1039C00028007FF769AC0D9849462BAA03F0B4FB99
:1039D00000287FF441ABDDF8B4C038AE5DE40D984B
:1039E00049462BAA03F0A8FB00283FF4A6ACFFF73A
:1039F00033BB0D9849462BAA03F09EFB00287FF4A9
:103A00002BABDDF8B4C038AE37E40D9849462BAA8D
:103A100003F092FB00287FF41FABDDF8B4C038AE92
:103A2000FFF7D4BB0D9849462BAA03F085FB00286D
:103A30007FF412ABDDF8B4C038AEFFF7D8BB0B9CF7
:103A400038AFFFF74BBB0223FFF724BB259B002BAE
:103A500040F35482119C149DDDF84480AC42A8BF11
:103A60002C46002CB8440BDD2C9B37600133A4445A
:103A7000072BCDF8B4C074602C9300F3FB8208369A
:103A8000149D24EAE4742C1B002C40F3B180102C0C
:103A90002C9BDFF8F0A640F3188251461025BA4659
:103AA0006246DDF834B00F4604E00836103C102CB6
:103AB00040F3078201331032072B2D922C9337608D
:103AC0007560F2DD584649462BAA03F035FB002805
:103AD0007FF4C2AA2D9A2C9B38AEE7E70D98494691
:103AE0002BAA03F029FB00287FF4B6AA9DF88FA02B
:103AF000DDF8B4C038AEFFF756BB0F9D2C68043517
:103B00000F9501230025FFF7C5BA119B5F1E002FFB
:103B10007FF74BAF102FDFF86CA640F3E6804FF035
:103B20001008DDF834B004E00836103F102F40F3E1
:103B3000DC8001341035072C2D952C94C6F800A09C
:103B4000C6F80480F0DD584649462BAA03F0F4FA83
:103B500000287FF481AA2D9D2C9C38AEE5E70F9DAF
:103B6000DDF83CC02C680CF1040CE517CDF83CC026
:103B700022462B4607E50F9D2C6804350F9500253E
:103B8000FFF788BA9446BA460133A444072BCDF810
:103B9000B4C02C93C6F800A074607FF77DAB12E729
:103BA0000DF1DF0B204629460A22002303F054FDC5
:103BB00030328BF80020204629460A22002303F0E9
:103BC0004BFD04460D4654EA050C5F460BF1FF3BE6
:103BD000E8D1089DEC1BFFF781BA0D9849462BAA46
:103BE00003F0AAFA00287FF437AADDF8B4C038AE93
:103BF000149D259C2F44119DAC4240DB099DE80794
:103C00003DD41198C7EB0805041BAC42B8BF25464C
:103C1000002D0BDD2C9B37600133AC44072BCDF816
:103C2000B4C075602C9300F35B82083625EAE57515
:103C3000641B002C7FF731AB102C2C9BDFF844A5C4
:103C4000A2DD10256246DDF83480574603E00836D1
:103C5000103C102C96DD01331032072B2D922C9343
:103C600037607560F3DD404649462BAA03F064FADD
:103C700000287FF4F1A92D9A2C9B38AEE8E72C9B05
:103C8000159D3560189D75600133AC44072BCDF848
:103C9000B4C02C9300F308820836B2E7099DE90707
:103CA0003FF555AE01340CF101050123072C2D958C
:103CB0002C94376073607FF777AE0D9849462BAA36
:103CC00003F03AFA00287FF4C7A92D9D2C9C38AE4A
:103CD0006BE60D9849462BAA03F02EFA00287FF4D4
:103CE000BBA92D9D2C9C38AE3DE601343D44072CEC
:103CF0002D952C94C6F800A077607FF755AEDCE7D1
:103D00000D9849462BAA03F017FA00287FF4A4A9BE
:103D10002D9D2C9C38AE32E60D9849462BAA03F017
:103D20000BFA00287FF498A9DDF8B4C038AEFFF78D
:103D300062BA4FF02D0A644265EB45058DF88FA0FD
:103D40000123FFF7ABB903F03FF9002800F023810E
:103D50000B9D013528F0200A00F07582BAF1470F5B
:103D600004D10B9D002D08BF01250B95DDE916231D
:103D7000DDF824C0002B4CF4807CCDF848C0C0F2A4
:103D80005982DDE91645CDE920454FF0000BB8F129
:103D9000660F00F03D82B8F1460F00F09582BAF14F
:103DA000450F0ABF0B9C0B9D651C022025A926AA66
:103DB00029AB8DE821000392049302910D98DDE96F
:103DC000202300F00DFCB8F1670F074602D0B8F1D0
:103DD000470F05D1DDF824C01CF0010F00F044822C
:103DE000BAF1460F07EB050400F0B081DDE92001D0
:103DF0000022002303F0D6FB002840F0A581299B78
:103E00009C4206D930215A1C29921970299B9C4248
:103E1000F9D8DB1BBAF1470F119300F07C81B8F1A0
:103E2000650F40F39D82B8F1660F00F00F82259C6C
:103E30001494119C149DAC4200F3DD81DDF824C084
:103E40001CF0010F40F05C8225EAE5732C464FF030
:103E50006708BBF1000F40F06C81129D0C9309952F
:103E6000CDF82CB09DF88FA0FFF741B9DDF824C044
:103E70001CF0100F40F0AB80DDF824C01CF0400FA8
:103E800000F03D810F9C109D236804340F941D8029
:103E9000FFF70EB8D3E900450833CDE916450F9377
:103EA000FFF7F5BB099C640640F18A80DDF83CC051
:103EB000BCF800400CF1040C0025CDF83CC0FFF725
:103EC000C4BA94463A46574692460133A444072B57
:103ED000CDF8B4C02C93C6F800A074603FF77DAE57
:103EE000083685E60D9849462BAA03F025F90028E7
:103EF0007FF4B2A8DDF8B4C038AE88E42C9A9D49AE
:103F0000316001320CF1010C0121072ACDF8B4C057
:103F10002C92716063DC08361C462CB9119D1DB9CA
:103F2000099DED077FF5B9A92C9B189A159D356061
:103F300001336244189D2D92072B75602C9300F37A
:103F4000488108366442002C40F38680102CDFF84C
:103F500034A240F39E8051461025BA46DDF83480E5
:103F60000F4604E00836103C102C40F38F800133DC
:103F70001032072B2D922C9337607560F2DD40468E
:103F800049462BAA03F0D8F800287FF465A82D9A9B
:103F90002C9B38AEE7E7099C774F784B9DF88FA0B4
:103FA0000B904FF0030C24F080040994CDF830C03E
:103FB0001490B8F1470FD8BF1F466446FFF797B873
:103FC0000F9D2C6804350F950025FFF73EBA0F9C16
:103FD000109D236804340F941D60FEF769BF0D988F
:103FE00049462BAA03F0A8F800287FF435A8259CA1
:103FF000DDF8B4C038AE90E7099C91F8018044F038
:10400000200401330994FEF78ABF0D9849462BAA74
:1040100003F092F800287FF41FA8DDF8B4C038AE92
:104020000BE4CDF82CA0FEF7D1FE0F9520EAE07C42
:104030000B9DCDF830C0044614959DF88FA0FFF776
:1040400056B80D9849462BAA03F076F800287FF45D
:1040500003A82D9A2C9B38AEDDF844C0119C376024
:1040600001339444072BCDF8B4C02C9374607FF7D0
:1040700013A9A8E40D9849462BAA03F05DF800287F
:104080007EF4EAAFDDF8B4C038AEF9E439465746FD
:104090008A4601332244072B2D922C93C6F800A0A8
:1040A0007460CEDC0836D7E70D9849462BAA03F09A
:1040B00043F800287EF4D0AF259CDDF8B4C038AEBC
:1040C0009FE50B9C1497062C28BF062424EAE47C69
:1040D000BA460B970F95CDF830C0294FFFF707B8B8
:1040E0000D9849462BAA03F027F800287EF4B4AFB8
:1040F000259C1199DDF8B4C00C1B38AE96E5DDF8AF
:104100003CC0109CDCF800300CF1040CCDF83CC035
:104110001C60FEF7CDBE259BDC1C35DB0B9C9C4256
:1041200032DB149385E64FF02D0A8DF88FA0FFF750
:10413000C0BA129D09954FF02D0A00250C938DF8F9
:104140008FA00B95FEF7D6BF234662E63B78302B57
:1041500000F0C180259D2C4448E624EAE47CCDF89B
:1041600030C00B9C0F950B9014909DF88FA0FEF71C
:10417000BEBF00BF7C7C0008487C0008447C00086F
:10418000747C0008807C0008A8F10208013B002B29
:104190002593BABF5B422D222B22092B8DF89C80E0
:1041A0008DF89D2062DC303330228DF89F308DF801
:1041B0009E2028AB119D119C27AA9A1A012D1992B5
:1041C000144440F3A4800134002524EAE4731495D8
:1041D0003FE60D9849462BAA02F0AEFF00287EF478
:1041E0003BAF259C2D9A2C9B38AEABE600240346B2
:1041F0000B94FEF795BE149C119D002CD4BFC4F106
:10420000020401242C4424EAE4734FF0670820E6FA
:104210000B9C0194032025A926AA29AB00900392A8
:10422000049302910D98DDE9202300F0D9F90B9D4C
:104230000746D5E517991698209001F10041219184
:104240004FF02D0BA3E506240B948FE5259D1495C7
:10425000002D0B9C78DD002C4BD1099DE80748D43C
:10426000149C24EAE473F4E5299BD2E50DF1AA003D
:104270003E4DDA1785FB0351C2EBA10101EB81042E
:104280000246A3EB440303F13000092910700B46EA
:1042900002F1FF30ECDC01F130030DF1AB04D9B2D7
:1042A000844202F8011C5DD90DF19D00134601E026
:1042B00013F8011BA34200F8011FF9D10DF5907C02
:1042C000C2EB4C03F63B75E70B9D0195032025A936
:1042D00026AA29ABA2E7DDE920010022002303F092
:1042E00061F900287FF436AFC5F1010525952C440E
:1042F0007CE50B9D6C1C149D2C4424EAE473A8E51A
:10430000149D6C1C24EAE4734FF06708A1E5DDF806
:1043100024C01CF001037FF456AF149324EAE47325
:1043200097E50F9DDDF83CC02D6893F801800B9553
:104330000CF10401002D0F910346BEF6F0AD4FF0D5
:10434000FF340B94FEF7EBBD2CB9099DE90702D4AD
:1043500001231C467DE50B9DAC1C24EAE47378E543
:10436000259B13E70DF19E0324E700BF6766666691
:104370002DE9F0430C46ADF26C4DB1F80C90E769B5
:10438000496EB4F80E8019911AAD4FF480664FF063
:10439000000E079729F00209676A0095694604959F
:1043A00002960596ADF80C90ADF80E800997CDF801
:1043B00018E00646FEF73AFD051E07DB3046694663
:1043C00001F0D4F8002818BF4FF0FF35BDF80C30CD
:1043D0005B0603D5A38943F04003A38128460DF271
:1043E0006C4DBDE8F08300BF2F4B1B6870B50646CF
:1043F0000C4613B19A6B002A36D0A589ABB21907C7
:104400000CD52269AAB113F001011ED06369002105
:104410005B42A361A160F2B1002070BDDA063BD51A
:104420005B0725D4226945F00803A3819BB2002ACB
:10443000E9D103F42071B1F5007FE4D03046214684
:1044400001F00AFCA3892269DDE7980758BF61697A
:10445000A160002AE0D1A3891A06DDD543F040030C
:10446000A3814FF0FF3070BD184601F09BF8C4E700
:10447000216B49B104F14003994203D0304601F069
:104480005DF9A5890023236325F024050023226913
:104490006360ADB22260C6E745F040050923336092
:1044A0004FF0FF30A58170BD400400202DE9F04F92
:1044B00003690D699D4283B0834600F38B80013D03
:1044C00001F1140400F1140A54F825205AF825309B
:1044D0000132B3FBF2F8AA00914600925244A14483
:1044E0000192B8F1000F3DD04FF0000E7046224609
:1044F00053468C4652F8046B1968B7B2360C07FB6A
:1045000008EE06FB08F606EB1E461FFA8EF7C71BE1
:10451000B0B217FA81F7C0EB114000EB2740BFB2F1
:1045200047EA0047914543F8047B4FEA20404FEAB1
:10453000164EDFD2009A5AF80230614693B9019ABA
:10454000131F9A450CD252F8043C4BB9A2F1080350
:1045500002E01A68043B1AB99A4505F1FF35F8D311
:10456000CBF81050584602F031FA00282EDB08F143
:1045700001085346002254F8046B1868B1B2521A6D
:10458000360C12FA80F1C6EB104202EB214289B2DE
:1045900041EA0241A14543F8041B4FEA2242EAD214
:1045A0005AF825200AEB850382B91A1F92450BD2CF
:1045B00053F8042C42B9083B02E01A68043B1AB9CC
:1045C0009A4505F1FF35F8D3CBF81050404603B0BB
:1045D000BDE8F08F002003B0BDE8F08F00000000C0
:1045E0002DE9F04F016C9BB00446279D92469B46F7
:1045F00049B1436C4B60012202FA03F38B6001F076
:10460000EDFF00232364BBF1000FD94633DB002309
:104610002B60A54B1A4609EA0303934214D0504677
:1046200059460022002302F0BDFF804648B3269E73
:10463000289D01233360002D00F0C9809B4828602D
:1046400001381BB0BDE8F08F269D42F20F732B603E
:10465000BAF1000F00F0A4809548289E002EF0D0FB
:10466000C378002B00F0B58000F10803289D2B6073
:104670001BB0BDE8F08F01232BF000492B60CB4627
:10468000C7E719AA18AB8DE80C00204652465B46D6
:1046900002F02AFA5FEA19550A9040F08A80189FC2
:1046A000199D6FF482633D449D42C0F294821F3392
:1046B00005F212425B1B09FA03F32AFA02F243EAFB
:1046C0000200FDF7D3FD0126013DB846A1F1F871C6
:1046D00016960022774BFDF78BFC6DA3D3E90023E0
:1046E000FDF73AFE6CA3D3E90023FDF783FC0646F1
:1046F00028460F46FDF7CAFD69A3D3E90023FDF75D
:104700002BFE02460B4630463946FDF773FC064643
:104710000F4602F079FF3946079000223046002309
:1047200002F04AFF002840F02882079E162E00F271
:104730002182614B03EBC603D3E9000152465B467D
:1047400002F058FF002800F04B82013E0796002639
:104750000E96C5EB0805013D069500F12582002562
:104760000895079E002EC0F21682069D0D963544D0
:10477000002606950C96249D092D2CD8052DC4BF26
:10478000043D2495249EA6F10203CCBF00250125FB
:10479000032B22D8DFE813F0B7039E02C0039A046C
:1047A000464A434BC9F3130000280CBF1046184675
:1047B00053E7CBF3130343F07F51CDF858805046B5
:1047C000A5F2FF3541F44011DDF8608081E73C48F7
:1047D00037E7C31C4AE70025249500256564294670
:1047E000204601F0D5FE4FF0FF39012609902595AE
:1047F0002064CDF83C900B96199B002BC0F2D28020
:10480000079E0E2E00F3CE802B4B03EBC603D3E99D
:104810000001CDE9040125990029C0F28083DDE97A
:10482000042359465046FDF7C1FE02F0EDFE054651
:10483000FDF72CFDDDE90423FDF78EFD02460B4656
:1048400050465946FDF7D4FB099A05F13003B9F1FA
:10485000010F06460F46137002F1010B64D00022CF
:10486000184BFDF779FD0022002306460F4602F0A3
:1048700099FE002840F08180DDF82480099D039492
:10488000C844DDE904AB05F1020928E0AFF300807C
:1048900061436F63A787D23FB3C8608B288AC63F46
:1048A000FB799F501344D33F0000F07F7D7C0008CC
:1048B0009C7C00080000F83FB07C0008907C000859
:1048C0007C7C000800002440FDF746FD0022002308
:1048D00006460F4602F066FE002840F0C1835246AD
:1048E0005B4630463946FDF761FE02F08DFE054617
:1048F000FDF7CCFC52465B46FDF72EFD02460B460B
:1049000030463946FDF774FB05F1300EC14509F814
:1049100001EC4C4606460F464FF00002A74B09F14A
:104920000109D1D1A346039C32463B463046394665
:10493000FDF760FB06460F463246DDE904013B46C3
:1049400002F03AFE40B9DDE9040132463B4602F08E
:1049500029FE90B1EB0710D51BF8015C099A05E020
:104960009A4200F0288413F8015C9B46392D0BF124
:10497000FF33F5D06A1CD2B21A7020460A9901F0B2
:104980002DFE079E269D731C289E00228BF800207A
:104990002B60002E00F025830998C6F800B01BB0EC
:1049A000BDE8F08F0B9D002D00F00381249E012EA9
:1049B00040F3DC820C9E09F1FF37BE42C0F28983CE
:1049C000F71BB9F1000FC0F28684089D4B46089E84
:1049D0001E440896069E20461E440121069601F0BC
:1049E000A1FE064665B10698002809DD0346089930
:1049F000AB42A8BF2B46C91AC01A0891ED1A0690FF
:104A00000C9A002A1DDD0B9B002B00F05883002F11
:104A100011DD31463A46204601F02CFF064631466C
:104A20000A9A204601F088FE0A998046204601F045
:104A3000D5FDCDF82880DDF830E0BEEB070240F070
:104A40008F822046012101F06DFE80460D980028DE
:104A500005DD414620460D9A01F00CFF8046249961
:104A6000012940F3C18200270D98002840F0AF8251
:104A70000120069B034413F01F0300F0A180C3F143
:104A80002002042A40F3B5840899069AC3F11C0356
:104A900019441A4408911D4406920899002905DD1D
:104AA0000A99089A204601F033FF0A90069A002AD4
:104AB00004DD4146204601F02BFF80460E9B002B73
:104AC00040F06A82B9F1000F40F3A6820B980028EB
:104AD00040F088800B9D0A9FDDF824B006E039463F
:104AE00020460A22002301F083FD0746384641464E
:104AF000FFF7DCFC30300BF805000135A945EEDC92
:104B0000DDF824B00A978246B9F1010FACBFCB445F
:104B10000BF1010B00250A990122204601F0F8FE55
:104B200041460A9001F052FF002840F309831BF828
:104B3000012C099905E0994200F08B8213F8012CB1
:104B40009B46392A0BF1FF33F5D001321A704146EA
:104B5000204601F043FD002E3FF40FAF2DB1B542CA
:104B600003D02946204601F039FD3146204601F0A8
:104B700035FD02E701260E96EBE50798FDF786FB6B
:104B800032463B4602F00EFD00287FF4CEAD079E74
:104B9000013E0796C9E5079E089DAD1B0895754225
:104BA00000260C950D96E6E56D42002608950696C2
:104BB000D7E50C9F089D0B9E14E700BF0000244022
:104BC0001C23DDF820E006989E441844CDF820E030
:104BD0001D44069061E7A748401B0AFA00F070E503
:104BE0000E90B6E5002D05DD31462A46204601F03F
:104BF0008FFE0646002F40F0E8823746099D09984F
:104C00004D4408950AF001050B95DDF82890451CE8
:104C10000AE001F0EDFC394606460A222046002350
:104C200001F0E6FC0746013541464846FFF73EFCE9
:104C300031468346484601F0C9FE414603903A4654
:104C4000204601F0E7FEC268691E03460BF1300AF8
:104C50000691002A40F0938119464846029301F0DC
:104C6000B5FE029B024619462046029201F0B6FCB0
:104C7000029A2AB9249B1BB90B98002800F0918353
:104C8000039B002BC0F2348205D1249818B90B99EC
:104C9000002900F02D82002A00F3AB82DDF820E02D
:104CA00005F801AC7545AB4600F0B38249460A22CF
:104CB0000023204601F09CFCBE428146314620463E
:104CC0004FF00A024FF00003A3D101F091FC064619
:104CD0000746A8E700260B96079EDDF894E0B64449
:104CE0000EF10109B9F1000FCDF83CE04E4640F35A
:104CF00050810021172E61640AD9012204235B0030
:104D000003F11400B042114602F10102F7D96164C7
:104D1000204601F03DFC0E2E099020643FF66CAD5C
:104D2000002D3FF469AD079D002DCDE912AB40F396
:104D30001B82514B05F00F0203EBC2032D11D3E987
:104D40000067EB0640F1CD814C4B50465946D3E904
:104D50000823FDF72BFCCDE9100105F00F054FF0FE
:104D600003088DB1DFF814A130463946EE0705D5AA
:104D7000DAE9002308F10108FDF7EEFA6D100AF1F7
:104D8000080AF3D106460F46DDE9100132463B46DC
:104D9000FDF70CFC82468B460E9D45B150465946A8
:104DA0000022374B02F008FC002840F0A982404660
:104DB000FDF76CFA52465B46FDF7CEFA0022314B06
:104DC000FDF718F90646A1F15077B9F1000F00F090
:104DD0005A81079D1795C8460B9D002D00F0228231
:104DE000254B294903EBC80353E902230020FDF7B3
:104DF000DDFB32463B46FDF7FBF8CDE91001594695
:104E0000504602F001FC0546FDF740FA02460B460B
:104E100050465946FDF7ECF83035099ECDE90401BE
:104E2000EDB23570DDE91001DDE9042306F1010B77
:104E300002F0E0FB002840F0A982DDE90423002015
:104E40000F49FDF7D5F802460B46DDE9100102F0E7
:104E5000D1FB002840F0A082B8F1010F40F380811F
:104E6000B044CDF85090A246C146DDE90467DDE9C3
:104E7000104519E0EEFBFFFFB07C0008787D0008CC
:104E80000000F03F00001C400000E03F0020A84967
:104E9000FDF7AEF822462B4602F08EFB002840F0CC
:104EA0007982CB4500F05981204629460022A14B4A
:104EB000FDF752FA00229F4B04460D463046394614
:104EC000FDF74AFA0F46064602F09EFB8046FDF7C4
:104ED000DDF902460B4630463946FDF789F808F100
:104EE00030085FFA88F822462B460BF8018B0646FD
:104EF0000F4602F061FB32463B460028C6D0179EA3
:104F00000796544639E500260B96259800283CDD87
:104F100006460F908146ECE601260B96F5E7B9F1BF
:104F2000000F3FF77CAC40F0C6800022824BDDE9E9
:104F30000401FDF711FA52465B4602F051FBC846E8
:104F40004E4600287CD0259DDDF824B0ED43079522
:104F50004146204601F042FB002E7FF406AE0CE5F0
:104F60000A99204601F086FC0A906AE5169D002DFC
:104F700000F0B78103F233430C9F089D27E50146FB
:104F8000204601F02BFB01227AE6012625960F969A
:104F9000B14600216164BBE60A98414601F016FD66
:104FA0000028BFF68FADDDF81CE00A990EF1FF3E38
:104FB00020460A220023CDF81CE001F019FB0A90DC
:104FC0000B98002840F00782DDF83C907AE5D8F88D
:104FD000103008EB8303186901F056FBC0F1200084
:104FE00047E50998FFF72DBBBAF1000F7FF43BAD01
:104FF000CBF31303002B40F07B812BF000473F0DD8
:105000003F05002F3FF430AD089A069B0132013373
:1050100008920693012727E5249902297FF756ADC8
:10502000B9F1000F8FD141464B460522204601F0D1
:10503000DFFA804641460A9801F0C8FC002882DD6C
:10504000079D01350795099D31232B7005F1010B53
:105050007EE7079809993123013007900B7076E5B8
:10506000A346039C89E44046FDF710F902460B462F
:1050700050465946FDF770F90022304BFCF7BAFF55
:105080000646A1F150775046594600222A4BFCF7BC
:10509000AFFF32463B4682468B4602F0ABFA002811
:1050A00040F0BC80324607F100435046594602F0BA
:1050B00083FA002854D04FF00008464643E70A9987
:1050C0000C9A204601F0D6FB0A90BAE401260B9612
:1050D00002E60C9D0D9E0C977B1B1E440D9600272F
:1050E0006FE4DDE912014FF00208CDE9100138E666
:1050F000002ACDF82890D94611DD0A9901222046D0
:1051000001F006FC41460A9001F060FC002840F3E3
:105110005B81BAF1390F00F01A8109F1310A069B5F
:10512000354683F800A003F1010B3E460FE500BFB2
:105130000000F03F000024400000144000001C402C
:1051400003D11AF0010F7FF4F2AC5B469B46013BA2
:105150001BF8012C302AF9D0F9E4DDF850905446C0
:10516000DDE912ABFFF748BB079E7542002D00F04A
:10517000C280A34B05F00F0203EBC203D3E9002367
:10518000DDE91201FDF7E8F82D1182468B4600F0AB
:105190002D819C4E4FF00208EA0705D5D6E9002381
:1051A00008F10108FDF7D8F86D1006F10806F3D1F3
:1051B00082468B46F0E5079E099D30222A70013613
:1051C000312207961A70FFF7D8BB7168204601F0AC
:1051D000DFF933699A1C0546920006F10C010C3088
:1051E00001F08EF820462946012201F091FB074686
:1051F00004E5BAF1390FCDF8289000F0A880069D9B
:105200000AF101032B703546069E06F1010B3E465E
:105210009DE43546CDF828903E467CE44FF00008EA
:1052200046460DE7764908F1FF3501EBC5013246E8
:105230003B46D1E900011095FDF78EF8CDE9140148
:105240005946504602F0E0F90546FDF71FF80246C0
:105250000B4650465946FCF7CBFEDDF824E03035CE
:10526000B8F1010F06460F468EF800500EF1010B03
:105270001ED0099D6B1E03EB080A0022624BFDF74E
:105280006BF80F46064602F0BFF98046FCF7FEFFBA
:1052900008F1300802460B4630463946FCF7A8FEB6
:1052A00005F8018F5545E8D1109D06460F46AB44E1
:1052B0000022564BDDE91401FCF79CFE32463B46CA
:1052C00002F07AF900284DD0179E07961BF8015C72
:1052D000099AFFF74BBB089E0023C9EB0605FFF7B1
:1052E00076BB189B0C9F089DC3F13603FFF76FBB7D
:1052F0005746FFF7B9BBDDE912AB4FF002084BE5AB
:10530000B9F1000F3FF4AFAE0F9E002E7FF728AF2C
:1053100000223D4B50465946FDF71EF8824608F1E3
:1053200001008B46FCF7B2FF02460B465046594639
:10533000FDF712F80022364BFCF75CFE079DDDF806
:105340003C80013D0646A1F15077179544E535466E
:10535000069B069E09993922327003F1010B3E46E5
:10536000FFF7EFBBDDE9142300202849FCF740FEDE
:1053700032463B4602F03EF900283FF4F1AE5B4670
:105380009B46013B1BF8012C302AF9D0179D07954D
:10539000FFF7F3BA45465446179E0796099AFFF75A
:1053A000E5BABAF1390FCDF82890D0D0039B354635
:1053B000002B069EC8BF0BF1310A86F800A006F14B
:1053C000010B3E46FFF7C3BB7FF4A9AE1AF0010FF5
:1053D0003FF4A5AE9DE6314620460A220023DDF8C3
:1053E0003C9001F005F90646FFF76CBB4FF0020850
:1053F000D2E43FF452ABC3F13C03FFF7E2BB00BF82
:10540000B07C0008787D0008000024400000E03FE8
:1054100000001C40AFF300808B899AB22DE9F04167
:105420000D46110780463CD46A6843F40063002AA5
:10543000AB8159DDAC6A002C4BD09BB203F4805297
:10544000002192B2D8F80060C8F80010002A4FD0AE
:105450002A6D5F0705D569682B6B521A0BB1EB6B90
:10546000D21A4046E9690023A047441C4AD0AA89C1
:105470002B692B6022F400639BB200226A60DA047D
:10548000AB814CD4296BC8F8006011B305F140031F
:10549000994202D0404600F051F900202863BDE84F
:1054A000F0812E69AEB12C682E6091070CBF6B693C
:1054B0000023A41BAB600AE0324623466F6AE96909
:1054C0004046B8470028C0EB0404064404DD002C25
:1054D000F2DC0020BDE8F081AB8943F04003AB81F2
:1054E0004FF0FF30BDE8F081EA6B002AA2DCF0E764
:1054F00001234046E969A047431C02461ED0AB8900
:10550000AC6AA6E7D8F800305BB9A9896B6021F4D2
:1055100000639BB22A69AB81DB042A60B2D528659F
:10552000B0E71D2B01D0162B19D1AA892B692B604E
:1055300022F400620023AA816B60A3E7D8F8003050
:10554000002BDCD01D2B07D0162B05D0AB8943F0E8
:105550004003AB81BDE8F081C8F80060B9E7AB89D2
:1055600043F04003AB81BDE8F08100BF10B50446B5
:1055700082B008B1836B53B1B1F90C0008B902B025
:1055800010BD204602B0BDE81040FFF745BF0191B5
:1055900000F008F80199EFE7014900F029BB00BFCE
:1055A000257300082DE9F04F846B83B00746002C6B
:1055B00065D145683348F8630423032107F53B723E
:1055C000C7F8E412C7F8E822C7F8E04205F15C002A
:1055D000AB812C606C60AC606C66EC812C616C61A2
:1055E000AC612146082200F085FFBE68DFF898B064
:1055F000DFF898A0DFF89890DFF89880ED6101233C
:105600000922C5F820B0C5F824A0C5F82890C5F82F
:105610002C802146F381B28134607460B46074667A
:1056200034617461B461082206F15C00019300F0FA
:1056300061FFFD68F66112200222C6F820B0C6F8AC
:1056400024A0C6F82890C6F82C802146A881EA81BB
:105650002C606C60AC606C662C616C61AC6105F1B7
:105660005C00082200F046FF019BED61C5F820B008
:10567000C5F824A0C5F82890C5F82C80BB6303B0FA
:10568000BDE8F08F995500083D7000086170000872
:1056900099700008B9700008704700BF704700BFDC
:1056A000F8B5234D0F46044600F06EFFAB685E6808
:1056B00026F00306F11B01F6EF7121F47F6121F062
:1056C0000F01A1F58057B7F5805F07DB2046002169
:1056D00001F0A2FCAB683344984204D0204600F0AD
:1056E00055FF0020F8BD2046794201F095FC0130BD
:1056F0000DD0104BAA681968F61B46F0010620462B
:10570000C91B5660196000F041FF0120F8BD20461A
:10571000002101F081FCAB68C21A0F2ADEDD064DC4
:1057200004492D6842F00102401B5A600860D5E729
:10573000A0040020C4080020AC0800202DE9F0419E
:105740000D460646002955D000F01EFF55F8041CF2
:10575000DFF874C121F00103A5F10804E218DCF8B8
:1057600008005768904227F0030769D011F0010143
:10577000576032D00021D0194068C00706D43B449E
:10578000906800294ED0D268C260906043F0010258
:105790006260E350E1B9B3F5007F2DD35A0A042AC1
:1057A0006AD89809383041000CEB810C4649DCF886
:1057B0000820624566D0516821F003018B4202D275
:1057C00092689445F7D1D368E360A2609C60D4608E
:1057D0003046BDE8F04100F0D9BE55F8085C641BC6
:1057E0000CF10808A06840452B4443D0E568C5602B
:1057F000A860C0E7BDE8F081DB080CEBC30201251F
:10580000DCF804009168A1609B1005FA03F31843CB
:10581000E260CCF8040094603046CC60BDE8F04112
:1058200000F0B4BE294DA842ADD143F00102CCF83E
:105830001440CCF81040E060A0606260E350C7E71D
:105840001F44CB0707D455F8083CE41A1F44A2684C
:10585000E368D3609A601E4B1B6847F001029F42C9
:105860006260CCF80840B3D31A4B30461968FFF792
:1058700017FFADE701217EE7142A0CD802F15B0087
:10588000410091E74B688010012505FA00F00343C1
:105890004B60134698E7542A03D8180B6E3041002A
:1058A00082E7B2F5AA7F03D8D80B773041007BE7B7
:1058B00040F254518A4203D8980C7C30410073E77F
:1058C000FC217E2070E700BFA0040020A804002077
:1058D000A8080020C00800202DE9F04F936883B08D
:1058E000164681460C462BB38B89190726D52269AB
:1058F00022B303F0020292B23568002A2CD04FF096
:10590000000ADFF8E8B2D046D84534BF43465B46CC
:1059100052464846B8F1000F4FD0E169676AB84770
:10592000002856DDB3681B1A8244C0EB0808B36038
:10593000002BE9D1002003B0BDE8F08F4846214696
:10594000FEF752FD002840F04881A389356803F036
:10595000020292B2002AD2D113F0010A42D1D046FB
:10596000B8F1000F23D09A05A76876D5B845C0F0E6
:10597000A48013F4906F40F0B2802068BB4651467B
:105980005A4600F057FDA2682168D21B01EB0B03B9
:10599000A26023604246B3689B1A9244C2EB080897
:1059A000B360002BC6D0A389B8F1000FDBD1D5F8C6
:1059B00000A0D5F804800835D2E7D5F800A0D5F8C6
:1059C00004800835A0E748462146FFF7CFFD0028B0
:1059D00059D0A38943F040034FF0FF30A38103B0B7
:1059E000BDE8F08F9246019293469046B8F1000FC1
:1059F0002BD0019F002F64D020682169D4F808C003
:105A00006269C24534BF5346434688421F4603D9A4
:105A10009444634500F3AE80934236DB1346676AD5
:105A2000E16948465A46B847071ED2DDBAEB070A75
:105A30003AD0B368DB1BBB44C7EB0808B360002B4C
:105A40003FF478AFB8F1000FD3D10027D5F800B0FC
:105A5000D5F8048001970835C8E720682369984283
:105A600002D86369984572D2B84538BF47463A466E
:105A7000514600F0DFFCA3682268DB1B3A44A360B8
:105A80002260002B9FD03A4685E71A46594600937C
:105A900000F0D0FC009BA1682268C91ABAEB070A83
:105AA0001344A1602360C4D148462146FFF75EFD40
:105AB00000288ED1CDF804A0BBE720684746C34636
:105AC0005DE758460A21424600F0D2FB00287FD00D
:105AD00000F1010A0127CBEB0A0A01978CE7226843
